:020000040800F2
:1000000000280020450D0008E90C0008EF0C00084E
:10001000F50C0008FB0C0008010D000800000000B2
:10002000000000000000000000000000070D0008B4
:10003000130D0008000000001F0D00082B0D000824
:100040008D0D00088D0D00088D0D00088D0D000828
:100050008D0D00088D0D00088D0D00088D0D000818
:100060008D0D00088D0D00088D0D00088D0D000808
:100070008D0D00088D0D00088D0D00088D0D0008F8
:100080008D0D00088D0D00088D0D00088D0D0008E8
:100090008D0D00088D0D00088D0D00088D0D0008D8
:1000A0008D0D00088D0D00088D0D00088D0D0008C8
:1000B0008D0D00088D0D0008000000008D0D00085A
:1000C0008D0D000800000000000000008D0D0008EC
:1000D000000000008D0D00088D0D000800000000DC
:1000E0008D0D00088D0D00088D0D0008000000002A
:1000F0000000000000000000000000000000000000
:0C01000000000000000000005FF808F1A3
:10010C0010B5054C237833B9044B13B10448AFF345
:10011C0000800123237010BD0C00002000000000A3
:10012C00B01B000808B5034B1BB103490348AFF3E0
:10013C00008008BD0000000010000020B01B00086B
:10014C0080B582B000AF78607B68002B23D1002291
:10015C000121C24801F0FAF800220221BF4801F047
:10016C00F5F800220421BD4801F0F0F80022082126
:10017C00BA4801F0EBF800221021B84801F0E6F87B
:10018C0000222021B54801F0E1F801224021B348BA
:10019C0001F0DCF85DE17B68012B23D10122012108
:1001AC00AE4801F0D3F800220221AC4801F0CEF8A1
:1001BC0000220421A94801F0C9F801220821A7480E
:1001CC0001F0C4F801221021A44801F0BFF801226B
:1001DC002021A24801F0BAF8012240219F4801F0E9
:1001EC00B5F836E17B68022B23D1002201219B4814
:1001FC0001F0ACF800220221984801F0A7F8012286
:10020C000421964801F0A2F800220821934801F03D
:10021C009DF800221021914801F098F8012220212C
:10022C008E4801F093F8002240218C4801F08EF8A2
:10023C000FE17B68032B23D100220121874801F0B9
:10024C0085F800220221854801F080F80022042163
:10025C00824801F07BF800220821804801F076F8F2
:10026C00012210217D4801F071F8012220217B48E8
:10027C0001F06CF800224021784801F067F8E8E0C2
:10028C007B68042B23D101220121744801F05EF814
:10029C0000220221714801F059F8002204216F4814
:1002AC0001F054F8012208216C4801F04FF80122AA
:1002BC0010216A4801F04AF800222021674801F019
:1002CC0045F800224021654801F040F8C1E07B6808
:1002DC00052B23D100220121604801F037F80122BF
:1002EC0002215E4801F032F8002204215B4801F043
:1002FC002DF800220821594801F028F8012210217C
:10030C00564801F023F800222021544801F01EF831
:10031C0000224021514801F019F89AE07B68062B25
:10032C0023D1002201214D4801F010F801220221B5
:10033C004A4801F00BF800220421484801F006F865
:10034C0000220821454801F001F800221021434801
:10035C0000F0FCFF00222021404800F0F7FF0022B3
:10036C0040213E4800F0F2FF73E07B68072B23D15D
:10037C0000220121394800F0E9FF00220221374810
:10038C0000F0E4FF00220421344800F0DFFF0122DA
:10039C000821324800F0DAFF012210212F4800F02A
:1003AC00D5FF012220212D4800F0D0FF0122402151
:1003BC002A4800F0CBFF4CE07B68082B23D10022AD
:1003CC000121264800F0C2FF00220221234800F040
:1003DC00BDFF00220421214800F0B8FF00220821B3
:1003EC001E4800F0B3FF002210211C4800F0AEFFA5
:1003FC0000222021194800F0A9FF002240211748B3
:10040C0000F0A4FF25E07B68092B22D100220121FA
:10041C00124800F09BFF00220221104800F096FFCA
:10042C00002204210D4800F091FF002208210B4806
:10043C0000F08CFF01221021084800F087FF0022F9
:10044C002021064800F082FF00224021034800F0E2
:10045C007DFF00BF0837BD4680BD00BF000C0140CA
:10046C0080B582B000AF78607B68002B29D1002268
:10047C008021C84800F06AFF00224FF48071C54803
:10048C0000F064FF00224FF40071C24800F05EFFE0
:10049C0000224FF48061BF4800F058FF00224FF457
:1004AC000061BC4800F052FF00224FF48051B94863
:1004BC0000F04CFF01224FF40051B64800F046FF0B
:1004CC0096E17B68012B29D101228021B14800F0F3
:1004DC003DFF00224FF48071AE4800F037FF002240
:1004EC004FF40071AB4800F031FF01224FF48061F2
:1004FC00A84800F02BFF01224FF40061A54800F042
:10050C0025FF01224FF48051A24800F01FFF012269
:10051C004FF400519F4800F019FF69E17B68022BF2
:10052C0029D1002280219B4800F010FF00224FF4BB
:10053C008071984800F00AFF01224FF40071954831
:10054C0000F004FF00224FF48061924800F0FEFEA0
:10055C0000224FF400618F4800F0F8FE01224FF4A6
:10056C0080518C4800F0F2FE00224FF40051894873
:10057C0000F0ECFE3CE17B68032B29D100228021AA
:10058C00844800F0E3FE00224FF48071814800F0B3
:10059C00DDFE00224FF400717E4800F0D7FE0022F1
:1005AC004FF480617B4800F0D1FE01224FF40061D2
:1005BC00784800F0CBFE01224FF48051754800F0D2
:1005CC00C5FE00224FF40051724800F0BFFE0FE14F
:1005DC007B68042B29D1012280216E4800F0B6FEE5
:1005EC0000224FF480716B4800F0B0FE00224FF4F3
:1005FC000071684800F0AAFE01224FF48061654842
:10060C0000F0A4FE01224FF40061624800F09EFE4F
:10061C0000224FF480515F4800F098FE00224FF406
:10062C0000515C4800F092FEE2E07B68052B29D17A
:10063C0000228021574800F089FE01224FF480717E
:10064C00544800F083FE00224FF40071514800F032
:10065C007DFE00224FF480614E4800F077FE0122AF
:10066C004FF400614B4800F071FE00224FF48051B2
:10067C00484800F06BFE00224FF40051454800F052
:10068C0065FEB5E07B68062B29D10022802141480C
:10069C0000F05CFE01224FF480713E4800F056FEE3
:1006AC0000224FF400713B4800F050FE00224FF442
:1006BC008061384800F04AFE00224FF40061354852
:1006CC0000F044FE00224FF48051324800F03EFE10
:1006DC0000224FF400512F4800F038FE88E07B6870
:1006EC00072B29D1002280212A4800F02FFE00225E
:1006FC004FF48071274800F029FE00224FF400715E
:10070C00244800F023FE01224FF48061214800F0C0
:10071C001DFE01224FF400611E4800F017FE01225D
:10072C004FF480511B4800F011FE01224FF4005190
:10073C00184800F00BFE5BE07B68082B2CD10022E4
:10074C008021144800F002FE00224FF48071114801
:10075C0000F0FCFD00224FF400710E4800F0F6FD95
:10076C0000224FF480610B4800F0F0FD00224FF4A2
:10077C000061084800F0EAFD00224FF48051054862
:10078C0000F0E4FD00224FF40051024800F0DEFDC1
:10079C002EE000BF000C01407B68092B28D1002201
:1007AC008021154800F0D2FD00224FF480711248D0
:1007BC0000F0CCFD00224FF400710F4800F0C6FD94
:1007CC0000224FF480610C4800F0C0FD01224FF470
:1007DC000061094800F0BAFD00224FF48051064830
:1007EC0000F0B4FD00224FF40051034800F0AEFDC0
:1007FC0000BF0837BD4680BD000C014080B584B0F9
:10080C0000AF00F0BFFA00F09FF900F0D9F9012316
:10081C00FB600023BB6004237B6002233B60FB680E
:10082C00012B4AD101220421C64800F08FFD002281
:10083C002021C44800F08AFD01224FF48071C14888
:10084C0000F084FD00224FF40061BE4800F07EFDF4
:10085C0000220821BB4800F079FD00224021B94854
:10086C0000F074FD00224FF40071B64800F06EFDEC
:10087C0000224FF48051B34800F068FD0022102193
:10088C00B04800F063FD01228021AE4800F05EFD0F
:10089C0000224FF48061AB4800F058FD01224FF468
:1008AC000051A84800F052FDBB68022B05DD022365
:1008BC00FB600023BB6001233B60FB68022B4CD127
:1008CC00012204219F4800F041FD002220219D4877
:1008DC0000F03CFD01224FF480719A4800F036FD87
:1008EC0000224FF40061974800F030FD00220821EF
:1008FC00944800F02BFD01224021924800F026FD87
:10090C0000224FF400718F4800F020FD01224FF4BB
:10091C0080518C4800F01AFD00221021894800F00B
:10092C0015FD00228021874800F010FD00224FF4B5
:10093C008061844800F00AFD00224FF40051814888
:10094C0000F004FDBB68012B07DD0323FB600023D3
:10095C00BB6004233B6002237B60FB68032B4AD102
:10096C0000220421774800F0F1FC01222021754877
:10097C0000F0ECFC00224FF48071724800F0E6FCB1
:10098C0001224FF400616F4800F0E0FC00220821C6
:10099C006C4800F0DBFC002240216A4800F0D6FCD9
:1009AC0000224FF40071674800F0D0FC00224FF495
:1009BC008051644800F0CAFC01221021614800F00B
:1009CC00C5FC002280215F4800F0C0FC01224FF4DE
:1009DC0080615C4800F0BAFC00224FF40051594889
:1009EC0000F0B4FCBB68022B05DD0423FB60002384
:1009FC00BB6001237B60FB68042B40F08F800022DE
:100A0C000421504800F0A2FC012220214D4800F0A6
:100A1C009DFC00224FF480714A4800F097FC0122A3
:100A2C004FF40061474800F091FC01220821454831
:100A3C0000F08CFC00224021424800F087FC01228F
:100A4C004FF400713F4800F081FC00224FF48051BC
:100A5C003C4800F07BFC002210213A4800F076FC68
:100A6C0000228021374800F071FC00224FF4806195
:100A7C00344800F06BFC00224FF40051314800F078
:100A8C0065FCBB68012B49DD0123FB600023BB60C7
:100A9C0002233B6004237B6001220421294800F0DF
:100AAC0055FC00222021274800F050FC01224FF475
:100ABC008071244800F04AFC00224FF40061214868
:100ACC0000F044FC002208211E4800F03FFC0022EC
:100ADC0040211C4800F03AFC00224FF400711948E8
:100AEC0000F034FC00224FF48051164800F02EFC2C
:100AFC0000221021134800F029FC0122802111480A
:100B0C0000F024FC00224FF480610E4800F01EFC23
:100B1C0001224FF400510B4800F018FCBB68013364
:100B2C00BB607868FFF70CFB3868FFF799FC3B68F3
:100B3C00013B3B607B68013B7B604FF47A7000F0BB
:100B4C0083F96CE60008014080B590B000AF07F166
:100B5C00180328220021184601F01CF83B1D002226
:100B6C001A605A609A60DA601A610223BB61012331
:100B7C00BB621023FB6200237B6307F1180318464A
:100B8C0000F0FCFB0346002B01D000F06FF80F23A4
:100B9C007B600023BB600023FB6000233B610023D0
:100BAC007B613B1D0021184600F068FE0346002BBC
:100BBC0001D000F05BF800BF4037BD4680BD00009F
:100BCC0080B586B000AF07F1080300221A605A60A6
:100BDC009A60DA60224B9B69214A43F004039361CB
:100BEC001F4B9B6903F004037B607B681C4B9B6968
:100BFC001B4A43F008039361194B9B6903F00803EC
:100C0C003B603B68002243F6FC71164800F09EFBEB
:100C1C00002243F6FF71144800F098FB43F6FC7376
:100C2C00BB600123FB6000233B6102237B6107F166
:100C3C00080319460B4800F00FFA43F6FF73BB602C
:100C4C000123FB6000233B6102237B6107F1080356
:100C5C001946054800F000FA00BF1837BD4680BDA4
:100C6C000010024000080140000C014080B400AFAD
:100C7C0072B600BFFEE7000080B485B000AF154B24
:100C8C009B69144A43F001039361124B9B6903F077
:100C9C000103BB60BB680F4BDB690E4A43F080530A
:100CAC00D3610C4BDB6903F080537B607B680A4B90
:100CBC005B68FB60FB6823F0E063FB60FB6843F060
:100CCC008063FB60044AFB68536000BF1437BD4669
:100CDC0080BC7047001002400000014080B400AF9F
:100CEC00FEE780B400AFFEE780B400AFFEE780B44F
:100CFC0000AFFEE780B400AFFEE780B400AF00BFEA
:100D0C00BD4680BC704780B400AF00BFBD4680BC00
:100D1C00704780B400AF00BFBD4680BC704780B543
:100D2C0000AF00F075F800BF80BD80B400AF00BF0D
:100D3C00BD4680BC704700000C480D490D4A00238D
:100D4C0002E0D458C4500433C4188C42F9D30A4A74
:100D5C000A4C002301E013600432A242FBD3FFF7DC
:100D6C00E4FF00F0F3FEFFF749FD704700000020A0
:100D7C000C000020F01B00080C0000202C000020B0
:100D8C00FEE7000080B500AF084B1B68074A43F034
:100D9C0010031360032000F02BF90F2000F008F86B
:100DAC00FFF76AFF0023184680BD00BF00200240F9
:100DBC0080B582B000AF7860124B1A68124B1B786A
:100DCC0019464FF47A73B3FBF1F3B2FBF3F3184605
:100DDC0000F035F90346002B01D001230EE07B68AF
:100DEC000F2B0AD8002279684FF0FF3000F00BF976
:100DFC00064A7B681360002300E00123184608377D
:100E0C00BD4680BD0000002008000020040000202A
:100E1C0080B400AF054B1B781A46054B1B68134476
:100E2C00034A136000BFBD4680BC70470800002019
:100E3C002800002080B400AF024B1B681846BD464A
:100E4C0080BC70472800002080B584B000AF78606B
:100E5C00FFF7F0FFB8607B68FB60FB68B3F1FF3F06
:100E6C0005D00A4B1B781A46FB681344FB6000BF85
:100E7C00FFF7E0FF0246BB68D31AFA689A42F7D82C
:100E8C0000BF00BF1037BD4680BD00BF080000206A
:100E9C0080B485B000AF78607B6803F00703FB601B
:100EAC000C4BDB68BB60BA684FF6FF031340BB60AA
:100EBC00FB681A02BB68134343F0BF6343F400336F
:100ECC00BB60044ABB68D36000BF1437BD4680BC0E
:100EDC00704700BF00ED00E080B400AF044BDB684E
:100EEC001B0A03F007031846BD4680BC704700BFC1
:100EFC0000ED00E080B483B000AF03463960FB71B5
:100F0C0097F90730002B0ADB3B68DAB20C4997F9EA
:100F1C0007301201D2B20B4483F800230AE03B687D
:100F2C00DAB20849FB7903F00F03043B1201D2B289
:100F3C000B441A7600BF0C37BD4680BC704700BF0F
:100F4C0000E100E000ED00E080B489B000AFF86093
:100F5C00B9607A60FB6803F00703FB61FB69C3F1BE
:100F6C000703042B28BF0423BB61FB690433062B46
:100F7C0002D9FB69033B00E000237B614FF0FF3299
:100F8C00BB6902FA03F3DA43BB681A407B699A40E7
:100F9C004FF0FF317B6901FA03F3D9437B680B40B7
:100FAC00134318462437BD4680BC704780B582B0C9
:100FBC0000AF78607B68013BB3F1807F01D30123E4
:100FCC000FE00A4A7B68013B53600F214FF0FF3062
:100FDC00FFF790FF054B00229A60044B07221A6022
:100FEC00002318460837BD4680BD00BF10E000E066
:100FFC0080B582B000AF78607868FFF749FF00BF1A
:10100C000837BD4680BD80B586B000AF0346B960D9
:10101C007A60FB7300237B61FFF75EFF78617A686F
:10102C00B9687869FFF790FF024697F90F301146BF
:10103C001846FFF75FFF00BF1837BD4680BD80B56F
:10104C0082B000AF78607868FFF7B0FF03461846AF
:10105C000837BD4680BD000080B48BB000AF78600F
:10106C00396000237B6200233B6248E101227B6AEA
:10107C0002FA03F3FB613B681B68FA691340BB611E
:10108C00BA69FB699A4240F037813B685B68A34AB6
:10109C0093425ED0A14A934275D8A14A934258D04C
:1010AC009F4A93426FD89F4A934252D09D4A934293
:1010BC0069D89D4A93424CD09B4A934263D89B4A31
:1010CC00934246D0994A93425DD8122B2AD8122BC0
:1010DC0059D801A252F823F05F1100083911000809
:1010EC004B1100088D110008931100089311000892
:1010FC009311000893110008931100089311000834
:10110C009311000893110008931100089311000823
:10111C009311000893110008931100084111000865
:10112C0055110008824A934213D02CE03B68DB68CF
:10113C003B6229E03B68DB6804333B6224E03B689C
:10114C00DB6808333B621FE03B68DB680C333B62B7
:10115C001AE03B689B68002B02D104233B6213E02E
:10116C003B689B68012B05D108233B627B68FA69BD
:10117C001A6109E008233B627B68FA695A6103E053
:10118C0000233B6200E000BFBB69FF2B01D87B68EA
:10119C0001E07B6804337B61BB69FF2B02D87B6A5F
:1011AC009B0002E07B6A083B9B003B617B691A68F1
:1011BC000F213B6901FA03F3DB431A40396A3B699F
:1011CC0001FA03F31A437B691A603B685B6803F00E
:1011DC008053002B00F09080564B9B69554A43F08E
:1011EC0001039361534B9B6903F00103BB60BB6824
:1011FC00514A7B6A9B08023352F82330FB607B6AAE
:10120C0003F003039B000F2202FA03F3DB43FA689B
:10121C001340FB607B68494A93420DD07B68484A77
:10122C00934207D07B68474A934201D1022304E0E2
:10123C00032302E0012300E000237A6A02F0030298
:10124C0092009340FA681343FB603B497B6A9B080E
:10125C000233FA6841F823203B685B6803F480335F
:10126C00002B06D0384B1A683749BB6913430B6007
:10127C0006E0354B1A68BB69DB43334913400B60FE
:10128C003B685B6803F40033002B06D02E4B5A6886
:10129C002D49BB6913434B6006E02B4B5A68BB6965
:1012AC00DB43294913404B603B685B6803F48013B4
:1012BC00002B06D0244B9A682349BB6913438B60DF
:1012CC0006E0214B9A68BB69DB431F4913408B60D6
:1012DC003B685B6803F40013002B06D01A4BDA68EA
:1012EC001949BB691343CB6006E0174BDA68BB693D
:1012FC00DB4315491340CB607B6A01337B623B684F
:10130C001A687B6A22FA03F3002B7FF4AFAE00BF9E
:10131C0000BF2C37BD4680BC704700BF00003210A8
:10132C0000003110000022100000211000001210EB
:10133C0000001110001002400000014000080140A4
:10134C00000C0140001001400004014080B483B047
:10135C0000AF78600B467B8013467B707B78002B4C
:10136C0003D07A887B681A6103E07B881A047B6857
:10137C001A6100BF0C37BD4680BC704780B586B083
:10138C0000AF78607B68002B01D101236CE27B6895
:10139C001B6803F00103002B00F08780924B5B6805
:1013AC0003F00C03042B0CD08F4B5B6803F00C0385
:1013BC00082B12D18C4B5B6803F48033B3F5803F60
:1013CC000BD1894B1B6803F40033002B6CD07B686A
:1013DC005B68002B68D1012346E27B685B68B3F540
:1013EC00803F06D1804B1B687F4A43F480331360E7
:1013FC002EE07B685B68002B0CD17B4B1B687A4A18
:10140C0023F480331360784B1B68774A23F48023D2
:10141C0013601DE07B685B68B3F5A02F0CD1724B99
:10142C001B68714A43F4802313606F4B1B686E4A30
:10143C0043F4803313600BE06B4B1B686A4A23F454
:10144C0080331360684B1B68674A23F48023136056
:10145C007B685B68002B13D0FFF7ECFC386108E06D
:10146C00FFF7E8FC02463B69D31A642B01D903232E
:10147C00FAE15D4B1B6803F40033002BF0D014E051
:10148C00FFF7D8FC386108E0FFF7D4FC02463B6953
:10149C00D31A642B01D90323E6E1534B1B6803F4E5
:1014AC000033002BF0D100E000BF7B681B6803F019
:1014BC000203002B63D04C4B5B6803F00C03002B36
:1014CC000BD0494B5B6803F00C03082B1CD1464B2B
:1014DC005B6803F48033002B16D1434B1B6803F07D
:1014EC000203002B05D07B681B69012B01D0012363
:1014FC00BAE13D4B1B6823F0F8027B685B69DB00AB
:10150C00394913430B603AE07B681B69002B20D0F0
:10151C00364B01221A60FFF78DFC386108E0FFF7AB
:10152C0089FC02463B69D31A022B01D903239BE1A8
:10153C002D4B1B6803F00203002BF0D02A4B1B68C9
:10154C0023F0F8027B685B69DB00274913430B60CF
:10155C0015E0264B00221A60FFF76CFC386108E09E
:10156C00FFF768FC02463B69D31A022B01D903230F
:10157C007AE11D4B1B6803F00203002BF0D17B6852
:10158C001B6803F00803002B3AD07B689B69002B87
:10159C0019D0174B01221A60FFF74CFC386108E098
:1015AC00FFF748FC02463B69D31A022B01D90323EF
:1015BC005AE10D4B5B6A03F00203002BF0D00120C3
:1015CC0000F0A6FA1CE00A4B00221A60FFF732FC6E
:1015DC0038610FE0FFF72EFC02463B69D31A022B51
:1015EC0008D9032340E100BF001002400000424232
:1015FC00800442429E4B5B6A03F00203002BE9D14C
:10160C007B681B6803F00403002B00F0A68000230A
:10161C00FB75974BDB6903F08053002B0DD1944B7A
:10162C00DB69934A43F08053D361914BDB6903F040
:10163C008053BB60BB680123FB758E4B1B6803F4A6
:10164C008073002B18D18B4B1B688A4A43F4807330
:10165C001360FFF7EFFB386108E0FFF7EBFB024686
:10166C003B69D31A642B01D90323FDE0814B1B6822
:10167C0003F48073002BF0D07B68DB68012B06D160
:10168C007B4B1B6A7A4A43F0010313622DE07B68A3
:10169C00DB68002B0CD1764B1B6A754A23F00103D7
:1016AC001362734B1B6A724A23F0040313621CE02F
:1016BC007B68DB68052B0CD16D4B1B6A6C4A43F0C5
:1016CC00040313626A4B1B6A694A43F001031362F9
:1016DC000BE0674B1B6A664A23F001031362644BF1
:1016EC001B6A634A23F0040313627B68DB68002BDC
:1016FC0015D0FFF79FFB38610AE0FFF79BFB024612
:10170C003B69D31A41F28832934201D90323ABE0EF
:10171C00574B1B6A03F00203002BEED014E0FFF7CB
:10172C0089FB38610AE0FFF785FB02463B69D31A57
:10173C0041F28832934201D9032395E04C4B1B6A4A
:10174C0003F00203002BEED1FB7D012B05D1484B9E
:10175C00DB69474A23F08053D3617B68DB69002B3C
:10176C0000F08180424B5B6803F00C03082B61D0C6
:10177C007B68DB69022B46D13F4B00221A60FFF7D6
:10178C0059FB386108E0FFF755FB02463B69D31A59
:10179C00022B01D9032367E0354B1B6803F0007360
:1017AC00002BF0D17B681B6AB3F5803F08D1304B1E
:1017BC005B6823F400327B689B682D4913434B60B4
:1017CC002B4B5B6823F474127B68196A7B685B6A29
:1017DC000B43274913434B60274B01221A60FFF739
:1017EC0029FB386108E0FFF725FB02463B69D31A59
:1017FC00022B01D9032337E01D4B1B6803F0007348
:10180C00002BF0D02FE01C4B00221A60FFF712FBCC
:10181C00386108E0FFF70EFB02463B69D31A022B36
:10182C0001D9032320E0124B1B6803F00073002B3B
:10183C00F0D118E07B68DB69012B01D1012313E0A7
:10184C000B4B5B68FB60FB6803F480327B681B6AA4
:10185C009A4206D1FB6803F470127B685B6A9A4269
:10186C0001D0012300E0002318461837BD4680BD87
:10187C0000100240007000406000424280B584B00D
:10188C0000AF786039607B68002B01D10123D0E078
:10189C006A4B1B6803F007033A689A4210D9674BEE
:1018AC001B6823F0070265493B6813430B60634BCD
:1018BC001B6803F007033A689A4201D00123B8E091
:1018CC007B681B6803F00203002B20D07B681B682D
:1018DC0003F00403002B05D0594B5B68584A43F4C2
:1018EC00E06353607B681B6803F00803002B05D092
:1018FC00534B5B68524A43F460535360504B5B68E4
:10190C0023F0F0027B689B684D4913434B607B6866
:10191C001B6803F00103002B40D07B685B68012B34
:10192C0007D1474B1B6803F40033002B15D101235F
:10193C007FE07B685B68022B07D1414B1B6803F08F
:10194C000073002B09D1012373E03D4B1B6803F09E
:10195C000203002B01D101236BE0394B5B6823F0B0
:10196C0003027B685B68364913434B60FFF762FAEE
:10197C00F8600AE0FFF75EFA0246FB68D31A41F200
:10198C008832934201D9032353E02D4B5B6803F05B
:10199C000C027B685B689B009A42EBD1274B1B685F
:1019AC0003F007033A689A4210D2244B1B6823F0C9
:1019BC00070222493B6813430B60204B1B6803F062
:1019CC0007033A689A4201D0012332E07B681B6816
:1019DC0003F00403002B08D0194B5B6823F4E0627E
:1019EC007B68DB68164913434B607B681B6803F00C
:1019FC000803002B09D0124B5B6823F460527B6800
:101A0C001B69DB000E4913434B6000F021F80246C2
:101A1C000B4B5B681B0903F00F030A49CB5C22FAE2
:101A2C0003F3094A1360094B1B681846FFF7C0F90A
:101A3C00002318461037BD4680BD00BF0020024071
:101A4C0000100240D81B00080000002004000020F9
:101A5C0090B48AB000AF2A4B3C1D0FCB84E80F002A
:101A6C0040F201233B800023FB610023BB61002378
:101A7C007B6200237B6100233B62224B5B68FB6132
:101A8C00FB6903F00C03042B02D0082B03D02DE0D0
:101A9C001D4B3B622DE0FB699B0C03F00F0307F120
:101AAC002802134413F8243C7B61FB6903F4803354
:101ABC00002B13D0134B5B685B0C03F0010307F195
:101ACC002802134413F8283CBB617B690E4A02FBC5
:101ADC0003F2BB69B2FBF3F37B6204E07B690B4A54
:101AEC0002FB03F37B627B6A3B6202E0064B3B62C8
:101AFC0000BF3B6A18462837BD4690BC704700BFF4
:101B0C00C81B00080010024000127A0000093D00BA
:101B1C0080B485B000AF78600A4B1B680A4AA2FB00
:101B2C0003235B0A7A6802FB03F3FB6000BFFB68CC
:101B3C005A1EFA60002BF9D100BF00BF1437BD4606
:101B4C0080BC704700000020D34D621070B5002699
:101B5C000C4D0D4C641BA410A64209D100F022F8C8
:101B6C0000260A4D0A4C641BA410A64205D170BD78
:101B7C0055F8043B98470136EEE755F8043B984777
:101B8C000136F2E7E81B0008E81B0008E81B000818
:101B9C00EC1B000803460244934200D1704703F843
:101BAC00011BF9E7F8B500BFF8BC08BC9E467047AE
:0C1BBC00F8B500BFF8BC08BC9E4670479E
:101BC80002030405060708090A0B0C0D0E0F101076
:101BD80000000000000000000102030406070809D5
:041BE80031010008BF
:041BEC000D010008DF
:0C1BF0000024F4001000000001000000C0
:0400000508000D459D
:00000001FF
